:1000000046C017C855C461C75DC0B0C05BC05AC008
:1000100059C09DC457C080C7ABC754C005C552C0A6
:1000200051C050C04FC003C40EC419C406C411C48B
:100030001CC421C408000000BE922449123EABAA91
:10004000AA2ABECDCCCC4C3E00000080BEABAAAAF2
:10005000AA3E00000000BF000000803F000000003A
:1000600000084178D3BB4387D1133D190E3CC3BD73
:100070004282AD2B3E68EC8276BED98FE1A93E4C20
:1000800080EFFFBE01C4FF7F3F000000000011248D
:100090001FBECFE5D4E0DEBFCDBF10E0A0E6B0E0EC
:1000A000E6E2F6E102C005900D92AE36B107D9F74F
:1000B00021E0AEE6B0E001C01D92AC30B207E1F73E
:1000C0001AD4AFCA9DCFB898C0981FBC8EB58068AF
:1000D0008EBDF2D6609374007093750080937600A5
:1000E0009093770008950F931F93E6D600917400C4
:1000F000109175002091760030917700601771079C
:100100008207930780F180916000813081F41DBCEB
:100110001CBC17BC16BC8093730089B7806289BF72
:100120008EB5816C8EBD1092600078940DC0B09B2E
:1001300007C084E690E0909371008093700004C043
:100140001092710010927000B7D6DC01CB01885478
:10015000944FAF4FBF4F8093740090937500A0935E
:100160007600B09377001F910F9108951F920F9220
:100170000FB60F921124CF92DF92EF92FF920F935E
:100180001F932F933F934F935F936F937F938F931F
:100190009F93AF93BF93CF93DF93EF93FF93F89425
:1001A00081E08093600080917300813069F486B5AE
:1001B00097B590937D0080937C0082E080937300DC
:1001C0008EB58F7B8EBD7AC080917300823069F4CA
:1001D00086B597B590937B0080937A0083E08093F7
:1001E00073008EB5816C8EBD69C0809173008330C1
:1001F00009F064C086B597B5909379008093780034
:100200001EBCC0917C00D0917D0060917A007091FD
:100210007B00C617D7070CF04BC0009178001091F7
:100220007900601771070CF043C0809172008A302A
:1002300060F5809172008F5F809372006C1B7D0B64
:10024000072E000C880B990B18D86B017C01B801A4
:100250006C1B7D0B072E000C880B990B0ED89B0195
:10026000AC01C701B60173D720E030E048EC52E49E
:10027000F9D8D5D720916E0030916F00620F731FAF
:1002800070936F0060936E0019C0809172008A3085
:10029000A9F480916E0090916F009093710080930B
:1002A00070001092720010926F0010926E0006C0E3
:1002B00088EC90E090937100809370007894FF91A7
:1002C000EF91DF91CF91BF91AF919F918F917F91EE
:1002D0006F915F914F913F912F911F910F91FF90DF
:1002E000EF90DF90CF900F900FBE0F901F9018955A
:1002F00020917000309171002436310569F021158C
:10030000310561F0ADECBCEC43D996958795969597
:10031000879596958795089584E6089580E00895D9
:10032000BED2C9D19D9B04C081E08093960002C0DB
:1003300010929600E7E9F0E011821282108281E0CB
:1003400035D3BAD560938600709387008093880078
:1003500090938900B1D5609382007093830080935D
:10036000840090938500A8D560937E0070937F00F1
:1003700080938000909381000895853178F09BEE02
:10038000980F9A3068F091EE980F9A3058F097EDE8
:10039000980F81E09A3038F080E0089584E0089565
:1003A00083E0089582E00895CF92DF92EF92FF926A
:1003B000CF93DF9394D180919700882321F08130EF
:1003C00009F441C15CC178D5C0908200D09083000F
:1003D000E0908400F09085006C157D058E059F05EA
:1003E00008F4C1C080919600813009F0ADC0DAD325
:1003F00018D4C7E9D0E08C837FD48D83E8D48E8372
:100400008C814AE050E06AE870E090E0CDD88AE85C
:1004100090E0F8D58AE690E0F5D58D814AE050E08D
:100420006AE870E090E0C0D88AE890E0EBD58AE610
:1004300090E0E8D58E814AE050E06AE870E090E014
:10044000B3D88AE890E0DED58AE690E0DBD583E693
:1004500090E0D8D58C81882341F080919C0088233E
:1004600021F080919D00811133C0C0907E00D0901A
:100470007F00E0908000F09081001ED520E3C20E46
:1004800025E7D21EE11CF11CC616D706E806F906C0
:10049000F8F481E080939500E7E9F0E083E0818360
:1004A0008481811104C084E08093990015C09091EB
:1004B0009C00911106C095E090939900803580F0E2
:1004C00013C080919D00811103C086E08093990044
:1004D00080919B00803540F480919C00803520F411
:1004E00080919D00803580F1C0907E00D0907F008B
:1004F000E0908000F0908100DFD420E3C20E25E779
:10050000D21EE11CF11CC616D706E806F906E0F477
:1005100081E080939500E7E9F0E081838481803574
:1005200020F084E0809399000FC080919C0080357A
:1005300020F085E08093990007C080919D00803570
:1005400018F086E080939900B7D4DC01CB018C5081
:100550009E4FAF4FBF4F8093820090938300A09334
:100560008400B0938500A8D4C0908600D090870006
:10057000E0908800F09089006C157D058E059F0540
:1005800008F440C0B0DDB4DEC7E9D0E088874AE0B7
:1005900050E06AE870E090E007D88AE890E032D551
:1005A00081E690E02FD58885E8DEFDD18885811130
:1005B0001AC0C0907E00D0907F00E0908000F09044
:1005C00081007AD420E3C20E25E7D21EE11CF11C83
:1005D000C616D706E806F90630F481E08093950048
:1005E00082E08093980068D4DC01CB0188519C4F55
:1005F000AF4FBF4F8093860090938700A0938800F1
:10060000B093890081E0D8D1809195008130B9F50F
:100610001092950080919400853088F080E0CCD1D4
:1006200080919800813019F480E0BDD102C080E053
:10063000BDD11092940081E08093970020C08F5F1D
:10064000809394001CC0C7E9D0E089814AE050E063
:100650006AE870E090E0A8D78AE890E0D3D48AE610
:1006600090E0D0D48A814AE050E06AE870E090E0FF
:100670009BD78AE890E0C6D487E690E0C3D4DF91A8
:10068000CF91FF90EF90DF90CF90089581E08ED1D1
:100690001092950011D460937E0070937F00809338
:1006A000800090938100E7E9F0E0118214821582C6
:1006B0001682108208958C9A9498FED36093A100BC
:1006C0007093A2008093A3009093A4001092A000C6
:1006D0000895813011F4949A0895949808950F9391
:1006E0001F9380919800813009F43FC030F0823030
:1006F00039F0833009F481C0CFC081E0EADFCCC09B
:10070000DBD30091A1001091A2002091A3003091B1
:10071000A400601771078207930708F4BDC0809199
:10072000A000833051F0863071F081110EC081E05D
:10073000D0DF83E08093A00008C080E0CADF86E0BD
:100740008093A00002C01092A000B6D3DC01CB01C0
:1007500088519C4FAF4FBF4F8093A1009093A20050
:10076000A093A300B093A40097C0A6D30091A100CA
:100770001091A2002091A3003091A400601771078E
:100780008207930708F488C08091A000833089F025
:1007900028F4882341F0813091F01FC08430A9F003
:1007A0008630C9F01AC081E094DF83E08093A00016
:1007B00014C080E08EDF81E08093A0000EC081E055
:1007C00088DF84E08093A00008C080E082DF86E0BC
:1007D0008093A00002C01092A0006ED3DC01CB0178
:1007E00088519C4FAF4FBF4F8093A1009093A200C0
:1007F000A093A300B093A4004FC05ED30091A100CA
:100800001091A2002091A3003091A40060177107FD
:100810008207930708F440C0E091A0008E2F90E07B
:100820008730910550F5FC01ED5EFF4F099481E0A2
:1008300050DF83E08093A00020C080E04ADF81E0A9
:100840008093A0001AC081E044DF84E08093A00080
:1008500014C080E03EDF82E08093A0000EC081E003
:1008600038DF85E08093A00008C080E032DF86E0BA
:100870008093A00002C01092A0001ED3DC01CB0127
:1008800088519C4FAF4FBF4F8093A1009093A2001F
:10089000A093A300B093A4001F910F9108958B988B
:1008A0008BB780688BBF85B78C6085BF78940895BF
:1008B0001F920F920FB60F9211242F933F934F93D5
:1008C0005F936F937F938F939F93AF93BF93EF93B8
:1008D000FF93DCDEFF91EF91BF91AF919F918F91DC
:1008E0007F916F915F914F913F912F910F900FBE2C
:1008F0000F901F901895D6D25CD092D363D087E624
:1009000090E05BD3E0DB07D00BDD81B5886081BD73
:10091000A8954ADDFDCFA49A89B7816089BF7894F4
:10092000089513BE8091A70081110BC08091A6008D
:10093000813061F4AC9A8AE08A95F1F700C0AC98F6
:1009400008951092A50083B7836083BF08951F9216
:100950000F920FB60F9211248F939F93F89413BEAA
:100960008091A5009091A700891738F48F5F80933C
:10097000A50083B7836083BF0EC089130CC010929B
:10098000A5008091A600813031F4AC9A85E38A9568
:10099000F1F70000AC9878949F918F910F900FBE63
:1009A0000F901F9018958093A70008958093A6003C
:1009B0000895A39AAB980895813011F4AB9A0895E5
:1009C000AB9808958FE086B977D26093A8007093B2
:1009D000A9008093AA009093AB0010920A01109294
:1009E0000B010895813061F018F0823091F019C048
:1009F00080E487B981E080930B0180930A0111C0E4
:100A000081E487B982E080930B0181E080930A0141
:100A100008C082E487B983E080930B0181E0809372
:100A20000A01379A369A08951F920F920FB60F92C5
:100A300011242F933F934F935F936F937F938F93E3
:100A40009F93AF93BF93EF93FF9380910B018230FD
:100A5000B9F1833009F465C0813009F091C080910B
:100A6000AE008A3090F48F5F8093AE0084B195B170
:100A70002091BB003091BC00820F931F9093BC006B
:100A80008093BB0010920A017BC08A3009F078C0C5
:100A90006091BB007091BC0080E090E0ECD360936B
:100AA000BD007093BE008093BF009093C000109271
:100AB000AE001092BC001092BB0010920A0160C000
:100AC0008091AD008A3090F48F5F8093AD0084B147
:100AD00095B12091B5003091B600820F931F90938D
:100AE000B6008093B50010920A014AC08A3009F01E
:100AF00047C06091B5007091B60080E090E0BBD334
:100B00006093B7007093B8008093B9009093BA00D7
:100B10001092AD001092B6001092B50010920A012A
:100B20002FC08091AC008A3090F48F5F8093AC002E
:100B300084B195B12091AF003091B000820F931F26
:100B40009093B0008093AF0010920A0119C08A30D0
:100B5000B9F46091AF007091B00080E090E08BD369
:100B60006093B1007093B2008093B3009093B4008F
:100B70001092AC001092B0001092AF0010920A01D7
:100B80003798FF91EF91BF91AF919F918F917F9196
:100B90006F915F914F913F912F910F900FBE0F90EA
:100BA0001F9018950F931F9387D10091A800109163
:100BB000A9002091AA003091AB000617170728075B
:100BC000390760F580910B01813031F098F0823067
:100BD00051F08330A1F40EC080910A0181110FC041
:100BE00081E000DF0CC080910A01811108C082E021
:100BF000F9DE05C080910A01811101C0F3DE5CD1EC
:100C0000DC01CB018C599F4FAF4FBF4F8093A800A1
:100C10009093A900A093AA00B093AB001F910F91ED
:100C200008958F929F92AF92BF92CF92DF92EF92F0
:100C3000FF92C090BD00D090BE00E090BF00F09049
:100C4000C00020E030E0A901C701B6017CD28823B2
:100C500009F448C020E030E040E251E4C701B601A9
:100C600076D221E233E240EA5BE3FCD39B01AC01A4
:100C700060E070E583E497E46AD220E030E44CE180
:100C800056E4FCD1AFD36B017C0126E230EB41E5A9
:100C900054E3E8D3A7019601E5D3A7019601E2D377
:100CA0004B015C0122E231ED43E859E3C701B60193
:100CB000D9D32CE932E348E65AE3E1D19B01AC01F8
:100CC000C501B401DCD19B01AC0160E070E080E8BB
:100CD0009FE33DD223E333E948E853E4CFD19FD2E9
:100CE000862F01C080E0FF90EF90DF90CF90BF9003
:100CF000AF909F908F9008958F929F92AF92BF92E6
:100D0000CF92DF92EF92FF92C090B700D090B800E0
:100D1000E090B900F090BA0020E030E0A901C701EE
:100D2000B60111D2882309F448C020E030E040E247
:100D300051E4C701B6010BD221E233E240EA5BE3A2
:100D400091D39B01AC0160E070E583E497E4FFD1AF
:100D500020E030E44CE156E491D144D36B017C01B6
:100D600026E230EB41E554E37DD3A70196017AD327
:100D7000A701960177D34B015C0122E231ED43E8F4
:100D800059E3C701B6016ED32CE932E348E65AE3D2
:100D900076D19B01AC01C501B40171D19B01AC01BD
:100DA00060E070E080E89FE3D2D123E333E948E8D4
:100DB00053E464D134D2862F01C080E0FF90EF90DD
:100DC000DF90CF90BF90AF909F908F9008958F92BB
:100DD0009F92AF92BF92CF92DF92EF92FF92C0901C
:100DE000B100D090B200E090B300F090B40020E0E9
:100DF00030E0A901C701B601A6D1882309F448C093
:100E000020E030E040E251E4C701B601A0D121E288
:100E100033E240EA5BE326D39B01AC0160E070E57E
:100E200083E497E494D120E030E44CE156E426D109
:100E3000D9D26B017C0126E230EB41E554E312D3B9
:100E4000A70196010FD3A70196010CD34B015C01BA
:100E500022E231ED43E859E3C701B60103D32CE99F
:100E600032E348E65AE30BD19B01AC01C501B40162
:100E700006D19B01AC0160E070E080E89FE367D1A0
:100E800023E333E948E853E4F9D0C9D1862F01C000
:100E900080E0FF90EF90DF90CF90BF90AF909F9059
:100EA0008F90089585B58C6085BD8AEF83BD89B725
:100EB000806889BF789408956091C1007091C200E4
:100EC0008091C3009091C40008951F920F920FB6B5
:100ED0000F9211248F939F93AF93BF93F8948091B7
:100EE000C1009091C200A091C300B091C4000196CE
:100EF000A11DB11D8093C1009093C200A093C300B7
:100F0000B093C4007894BF91AF919F918F910F904F
:100F10000FBE0F901F9018951F920F920FB60F9251
:100F200011242F938F939F93EF93FF938BB12CB149
:100F30008C71E091C700EF5FEF719091C600E917E7
:100F400039F0E093C700F0E0E653FF4F208301C083
:100F500082E09091C500892B8093C500FF91EF91AD
:100F60009F918F912F910F900FBE0F901F9018950A
:100F70001F920F920FB60F9211248F939F93EF93AE
:100F8000FF939091C9008091C800981761F0E0919B
:100F9000C800EF5FEF71E093C800F0E0E651FF4F4B
:100FA00080818CB901C05598FF91EF919F918F91ED
:100FB0000F900FBE0F901F9018951092C9001092BD
:100FC000C8001092C7001092C600992314F422E0C2
:100FD0002BB9907890BD89B988E98AB986E880BD37
:100FE00008952091C9002F5F2F719091C800291793
:100FF000E1F3E22FF0E0E651FF4F80832093C90038
:10100000559A0895CF93DF93EC018881882329F0C6
:101010002196E7DF89918111FCCFDF91CF9108956F
:101020008A988BB780648BBF85B7836085BF7894BF
:1010300008951F920F920FB60F9211242F933F9392
:101040004F935F936F937F938F939F93AF93BF93D0
:10105000EF93FF93F89465DC7894FF91EF91BF9143
:10106000AF919F918F917F916F915F914F913F9140
:101070002F910F900FBE0F901F9018955058BB27BF
:10108000AA270ED070C161D130F066D120F031F4C2
:101090009F3F11F41EF456C10EF4E095E7FB4CC1DE
:1010A000E92F72D180F3BA17620773078407950797
:1010B00018F071F49EF58AC10EF4E0950B2EBA2F4C
:1010C000A02D0B01B90190010C01CA01A00111244E
:1010D000FF27591B99F0593F50F4503E68F11A16FA
:1010E000F040A22F232F342F4427585FF3CF46958B
:1010F00037952795A795F0405395C9F77EF41F16AD
:10110000BA0B620B730B840BBAF09150A1F0FF0F76
:10111000BB1F661F771F881FC2F70EC0BA0F621F62
:10112000731F841F48F4879577956795B795F79552
:101130009E3F08F0B3CF9395880F08F09927EE0FE4
:10114000979587950895D4D008F481E008950CD040
:101150000AC102D140F0F9D030F021F45F3F19F01C
:10116000EBC0511134C1EEC00FD198F39923C9F3EC
:101170005523B1F3951B550BBB27AA27621773079D
:10118000840738F09F5F5F4F220F331F441FAA1F51
:10119000A9F333D00E2E3AF0E0E830D09150504011
:1011A000E695001CCAF729D0FE2F27D0660F771FBF
:1011B000881FBB1F261737074807AB07B0E809F0A1
:1011C000BB0B802DBF01FF2793585F4F2AF09E3F36
:1011D000510568F0B1C0FBC05F3FECF3983EDCF313
:1011E000869577956795B795F7959F5FC9F7880FAF
:1011F000911D9695879597F90895E1E0660F771F01
:10120000881FBB1F621773078407BA0720F0621B91
:10121000730B840BBA0BEE1F88F7E0950895BCD0D2
:1012200088F09F5790F0B92F9927B751A0F0D1F0CF
:10123000660F771F881F991F1AF0BA95C9F712C059
:10124000B13081F0C3D0B1E00895C0C0672F782FCE
:101250008827B85F39F0B93FCCF3869577956795C5
:10126000B395D9F73EF490958095709561957F4F31
:101270008F4F9F4F0895E89409C097FB3EF49095D7
:101280008095709561957F4F8F4F9F4F9923A9F05F
:10129000F92F96E9BB279395F695879577956795EE
:1012A000B795F111F8CFFAF4BB0F11F460FF1BC032
:1012B0006F5F7F4F8F4F9F4F16C0882311F096E9C5
:1012C00011C0772321F09EE8872F762F05C0662373
:1012D00071F096E8862F70E060E02AF09A95660F2C
:1012E000771F881FDAF7880F9695879597F90895E5
:1012F000990F0008550FAA0BE0E8FEEF1616170627
:10130000E807F907C0F012161306E407F50798F08E
:10131000621B730B840B950B39F40A2661F0232BA7
:10132000242B252B21F408950A2609F4A140A69523
:101330008FEF811D811D089597F99F6780E870E008
:1013400060E008959FEF80EC089500240A9416163B
:10135000170618060906089500240A9412161306A3
:10136000140605060895092E0394000C11F4882331
:1013700052F0BB0F40F4BF2B11F460FF04C06F5F4D
:101380007F4F8F4F9F4F089557FD9058440F551F23
:1013900059F05F3F71F04795880F97FB991F61F0F7
:1013A0009F3F79F087950895121613061406551F6E
:1013B000F2CF4695F1DF08C0161617061806991FDA
:1013C000F1CF86957105610508940895E894BB27CF
:1013D00066277727CB0197F908950EF0A6C0B2CF04
:1013E0006894AACFD9DFC8F39923D1F3C6F3DF936A
:1013F000CF931F930F93FF92C92FDD2788232AF0E5
:101400002197660F771F881FDAF720E030E040E869
:101410005FEB9FE3883920F0803E30F021968F7794
:101420002EDEE4E3F0E003C02ADEE1E6F0E08BD05C
:101430008B01BE01EC01FB2E6F5771097595771F6B
:10144000880B990B1ADF28E132E741E35FE316D0FE
:10145000AF2D9801AE01FF900F911F91CF91DF91B9
:101460001FDE81CF0BD07FCF70DF28F075DF18F043
:10147000952309F061CF66CF1124A9CF85DFA0F3B2
:10148000959FD1F3950F50E0551F629FF001729F19
:10149000BB27F00DB11D639FAA27F00DB11DAA1F38
:1014A000649F6627B00DA11D661F829F2227B00D85
:1014B000A11D621F739FB00DA11D621F839FA00D10
:1014C000611D221F749F3327A00D611D231F849F60
:1014D000600D211D822F762F6A2F11249F575040B7
:1014E0008AF0E1F088234AF0EE0FFF1FBB1F661F52
:1014F000771F881F91505040A9F79E3F510570F00B
:101500001BCF65CF5F3FECF3983EDCF38695779574
:101510006795B795F795E7959F5FC1F7FE2B880F05
:10152000911D9695879597F908959F3F31F09150B9
:1015300020F4879577956795B795880F911D9695B7
:10154000879597F90895DF93CF931F930F93FF9299
:10155000EF92DF927B018C01689405C0DA2EEF01D7
:101560008DDFFE01E894A591259135914591559126
:10157000AEF3EF0195DDFE019701A801DA9479F74A
:10158000DF90EF90FF900F911F91CF91DF91089521
:10159000A29FB001B39FC001A39F01D0B29F700D65
:1015A000811D1124911D08954532510518F44230D2
:1015B00008F004C0FB011082CB010895BB274A301C
:1015C00031F4992322F4BDE2909581959F4F01C09B
:1015D000BB27FB015527AA27880F991FAA1FA4170D
:1015E00010F0A41B83955051B9F7A05DAA3308F001
:1015F000A95DA193009779F7B111B1931192CB0135
:1016000000C0DC01FC01672F71917723E1F732976D
:1016100004C07C916D9370836291AE17BF07C8F3CD
:061620000895F894FFCFCD
:0E162600012020202020202020202020000055
:00000001FF
